{
  "contractName": "NewVotingContract",
  "abi": [
    {
      "inputs": [
        {
          "internalType": "address",
          "name": "_tokenAddress",
          "type": "address"
        }
      ],
      "payable": false,
      "stateMutability": "nonpayable",
      "type": "constructor"
    },
    {
      "anonymous": false,
      "inputs": [
        {
          "indexed": false,
          "internalType": "address",
          "name": "account",
          "type": "address"
        },
        {
          "indexed": false,
          "internalType": "uint256",
          "name": "balance",
          "type": "uint256"
        }
      ],
      "name": "CheckTokenBalance",
      "type": "event"
    },
    {
      "anonymous": false,
      "inputs": [
        {
          "indexed": false,
          "internalType": "uint256",
          "name": "activeStack",
          "type": "uint256"
        }
      ],
      "name": "NewStack",
      "type": "event"
    },
    {
      "anonymous": false,
      "inputs": [
        {
          "indexed": false,
          "internalType": "uint256",
          "name": "requirement",
          "type": "uint256"
        },
        {
          "indexed": false,
          "internalType": "uint256",
          "name": "defaultR",
          "type": "uint256"
        },
        {
          "indexed": false,
          "internalType": "uint256",
          "name": "total",
          "type": "uint256"
        }
      ],
      "name": "WinningStake",
      "type": "event"
    },
    {
      "anonymous": false,
      "inputs": [
        {
          "indexed": false,
          "internalType": "address",
          "name": "depositer",
          "type": "address"
        },
        {
          "indexed": false,
          "internalType": "uint256",
          "name": "tokenAmount",
          "type": "uint256"
        }
      ],
      "name": "tokensDeposited",
      "type": "event"
    },
    {
      "constant": true,
      "inputs": [
        {
          "internalType": "uint256",
          "name": "",
          "type": "uint256"
        }
      ],
      "name": "acceptedProposal",
      "outputs": [
        {
          "internalType": "address",
          "name": "",
          "type": "address"
        }
      ],
      "payable": false,
      "stateMutability": "view",
      "type": "function"
    },
    {
      "constant": true,
      "inputs": [],
      "name": "activeStack",
      "outputs": [
        {
          "internalType": "uint256",
          "name": "",
          "type": "uint256"
        }
      ],
      "payable": false,
      "stateMutability": "view",
      "type": "function"
    },
    {
      "constant": true,
      "inputs": [],
      "name": "delegate",
      "outputs": [
        {
          "internalType": "address",
          "name": "",
          "type": "address"
        }
      ],
      "payable": false,
      "stateMutability": "view",
      "type": "function"
    },
    {
      "constant": true,
      "inputs": [],
      "name": "number",
      "outputs": [
        {
          "internalType": "uint256",
          "name": "",
          "type": "uint256"
        }
      ],
      "payable": false,
      "stateMutability": "view",
      "type": "function"
    },
    {
      "constant": true,
      "inputs": [],
      "name": "owner",
      "outputs": [
        {
          "internalType": "address",
          "name": "",
          "type": "address"
        }
      ],
      "payable": false,
      "stateMutability": "view",
      "type": "function"
    },
    {
      "constant": true,
      "inputs": [
        {
          "internalType": "uint256",
          "name": "",
          "type": "uint256"
        }
      ],
      "name": "proposalAddress",
      "outputs": [
        {
          "internalType": "address",
          "name": "",
          "type": "address"
        }
      ],
      "payable": false,
      "stateMutability": "view",
      "type": "function"
    },
    {
      "constant": true,
      "inputs": [],
      "name": "proposalCount",
      "outputs": [
        {
          "internalType": "uint256",
          "name": "",
          "type": "uint256"
        }
      ],
      "payable": false,
      "stateMutability": "view",
      "type": "function"
    },
    {
      "constant": true,
      "inputs": [
        {
          "internalType": "uint256",
          "name": "",
          "type": "uint256"
        }
      ],
      "name": "proposalStackArray",
      "outputs": [
        {
          "internalType": "uint256",
          "name": "proposalCount",
          "type": "uint256"
        },
        {
          "internalType": "string",
          "name": "openDate",
          "type": "string"
        },
        {
          "internalType": "string",
          "name": "expirationDate",
          "type": "string"
        },
        {
          "internalType": "uint256",
          "name": "expiration",
          "type": "uint256"
        },
        {
          "internalType": "bool",
          "name": "isActive",
          "type": "bool"
        },
        {
          "internalType": "uint256",
          "name": "voteCounter",
          "type": "uint256"
        },
        {
          "internalType": "uint256",
          "name": "stackReward",
          "type": "uint256"
        },
        {
          "internalType": "uint256",
          "name": "number",
          "type": "uint256"
        },
        {
          "internalType": "uint256",
          "name": "winningStakeAvailable",
          "type": "uint256"
        }
      ],
      "payable": false,
      "stateMutability": "view",
      "type": "function"
    },
    {
      "constant": true,
      "inputs": [
        {
          "internalType": "address",
          "name": "",
          "type": "address"
        }
      ],
      "name": "proposals",
      "outputs": [
        {
          "internalType": "uint256",
          "name": "id",
          "type": "uint256"
        },
        {
          "internalType": "address",
          "name": "proposalOwner",
          "type": "address"
        },
        {
          "internalType": "uint256",
          "name": "voteCount",
          "type": "uint256"
        },
        {
          "internalType": "uint256",
          "name": "countYes",
          "type": "uint256"
        },
        {
          "internalType": "uint256",
          "name": "countNo",
          "type": "uint256"
        },
        {
          "internalType": "string",
          "name": "proposalName",
          "type": "string"
        },
        {
          "internalType": "string",
          "name": "proposalDesc",
          "type": "string"
        },
        {
          "internalType": "uint256",
          "name": "proposalRequirement",
          "type": "uint256"
        },
        {
          "internalType": "bool",
          "name": "proposalRegistered",
          "type": "bool"
        },
        {
          "internalType": "bool",
          "name": "accepted",
          "type": "bool"
        },
        {
          "internalType": "uint256",
          "name": "stack",
          "type": "uint256"
        }
      ],
      "payable": false,
      "stateMutability": "view",
      "type": "function"
    },
    {
      "constant": false,
      "inputs": [
        {
          "internalType": "address",
          "name": "newOwner",
          "type": "address"
        },
        {
          "internalType": "address",
          "name": "_account",
          "type": "address"
        }
      ],
      "name": "setOwnerDelegate",
      "outputs": [
        {
          "internalType": "bool",
          "name": "",
          "type": "bool"
        }
      ],
      "payable": false,
      "stateMutability": "nonpayable",
      "type": "function"
    },
    {
      "constant": false,
      "inputs": [
        {
          "internalType": "uint256",
          "name": "newNumber",
          "type": "uint256"
        }
      ],
      "name": "setNumber",
      "outputs": [
        {
          "internalType": "bool",
          "name": "",
          "type": "bool"
        },
        {
          "internalType": "uint256",
          "name": "",
          "type": "uint256"
        }
      ],
      "payable": false,
      "stateMutability": "nonpayable",
      "type": "function"
    },
    {
      "constant": false,
      "inputs": [
        {
          "internalType": "string",
          "name": "_openDate",
          "type": "string"
        },
        {
          "internalType": "string",
          "name": "_expirationDate",
          "type": "string"
        },
        {
          "internalType": "uint256",
          "name": "_expiration",
          "type": "uint256"
        },
        {
          "internalType": "uint256",
          "name": "_stackReward",
          "type": "uint256"
        },
        {
          "internalType": "address",
          "name": "_account",
          "type": "address"
        }
      ],
      "name": "newProposalStack",
      "outputs": [
        {
          "internalType": "uint256",
          "name": "",
          "type": "uint256"
        }
      ],
      "payable": false,
      "stateMutability": "nonpayable",
      "type": "function"
    },
    {
      "constant": false,
      "inputs": [
        {
          "internalType": "uint256",
          "name": "stackNumber",
          "type": "uint256"
        }
      ],
      "name": "getProposalsByStack",
      "outputs": [
        {
          "internalType": "uint256",
          "name": "",
          "type": "uint256"
        },
        {
          "internalType": "uint256",
          "name": "",
          "type": "uint256"
        },
        {
          "internalType": "bool",
          "name": "",
          "type": "bool"
        }
      ],
      "payable": false,
      "stateMutability": "nonpayable",
      "type": "function"
    },
    {
      "constant": false,
      "inputs": [
        {
          "internalType": "uint256",
          "name": "_stackNumber",
          "type": "uint256"
        }
      ],
      "name": "getProposalListByStack",
      "outputs": [
        {
          "internalType": "address[]",
          "name": "",
          "type": "address[]"
        },
        {
          "internalType": "string[]",
          "name": "",
          "type": "string[]"
        },
        {
          "internalType": "string[]",
          "name": "",
          "type": "string[]"
        },
        {
          "internalType": "uint256[]",
          "name": "",
          "type": "uint256[]"
        },
        {
          "internalType": "uint256[]",
          "name": "",
          "type": "uint256[]"
        },
        {
          "internalType": "uint256[]",
          "name": "",
          "type": "uint256[]"
        }
      ],
      "payable": false,
      "stateMutability": "nonpayable",
      "type": "function"
    },
    {
      "constant": false,
      "inputs": [
        {
          "internalType": "uint256",
          "name": "_currentDate",
          "type": "uint256"
        },
        {
          "internalType": "string",
          "name": "_description",
          "type": "string"
        },
        {
          "internalType": "uint256",
          "name": "_proposalRequirement",
          "type": "uint256"
        },
        {
          "internalType": "string",
          "name": "_name",
          "type": "string"
        },
        {
          "internalType": "address",
          "name": "_account",
          "type": "address"
        }
      ],
      "name": "registerProposal",
      "outputs": [
        {
          "internalType": "uint256",
          "name": "",
          "type": "uint256"
        }
      ],
      "payable": false,
      "stateMutability": "nonpayable",
      "type": "function"
    },
    {
      "constant": false,
      "inputs": [
        {
          "internalType": "address",
          "name": "proposalAddressToVote",
          "type": "address"
        },
        {
          "internalType": "bool",
          "name": "support",
          "type": "bool"
        },
        {
          "internalType": "uint256",
          "name": "_currentDate",
          "type": "uint256"
        },
        {
          "internalType": "address",
          "name": "_account",
          "type": "address"
        }
      ],
      "name": "castVote",
      "outputs": [
        {
          "internalType": "uint256",
          "name": "",
          "type": "uint256"
        }
      ],
      "payable": false,
      "stateMutability": "nonpayable",
      "type": "function"
    },
    {
      "constant": false,
      "inputs": [
        {
          "internalType": "address",
          "name": "_account",
          "type": "address"
        }
      ],
      "name": "reviewWinningProposals",
      "outputs": [
        {
          "internalType": "uint256",
          "name": "",
          "type": "uint256"
        }
      ],
      "payable": false,
      "stateMutability": "nonpayable",
      "type": "function"
    }
  ],
  "bytecode": "0x608060405260006006556000600c553480156200001b57600080fd5b5060405162004df038038062004df0833981810160405262000041919081019062000199565b33600760006101000a81548173ffffffffffffffffffffffffffffffffffffffff021916908373ffffffffffffffffffffffffffffffffffffffff16021790555033600860006101000a81548173ffffffffffffffffffffffffffffffffffffffff021916908373ffffffffffffffffffffffffffffffffffffffff16021790555080600960006101000a81548173ffffffffffffffffffffffffffffffffffffffff021916908373ffffffffffffffffffffffffffffffffffffffff1602179055506000600281905550600a600c819055506040518060a001604052806103e881526020016101f481526020016033815260200161271081526020016103e8815250600d60008201518160000155602082015181600101556040820151816002015560608201518160030155608082015181600401559050505062000213565b6000815190506200019381620001f9565b92915050565b600060208284031215620001ac57600080fd5b6000620001bc8482850162000182565b91505092915050565b6000620001d282620001d9565b9050919050565b600073ffffffffffffffffffffffffffffffffffffffff82169050919050565b6200020481620001c5565b81146200021057600080fd5b50565b614bcd80620002236000396000f3fe608060405234801561001057600080fd5b506004361061010b5760003560e01c806389107dc8116100a2578063c89e436111610071578063c89e436114610327578063c8df91f114610345578063da35c6641461037d578063e37af1201461039b578063e5f4ef0d146103d05761010b565b806389107dc8146102795780638da5cb5b146102a957806390d0df3d146102c75780639bd6e218146102f75761010b565b806366cce826116100de57806366cce826146101cb5780636ea094a5146101fb5780637960cb261461022b5780638381f58a1461025b5761010b565b80633341b445146101105780633c1960f31461014a5780633c7b8b9b1461017c5780633fb5c1cb1461019a575b600080fd5b61012a60048036036101259190810190613be1565b610400565b6040516101419b9a999897969594939291906147b7565b60405180910390f35b610164600480360361015f9190810190613d79565b6105c4565b6040516101739392919061490b565b60405180910390f35b61018461090a565b604051610191919061479c565b60405180910390f35b6101b460048036036101af9190810190613d79565b610910565b6040516101c2929190614633565b60405180910390f35b6101e560048036036101e09190810190613dcb565b61092a565b6040516101f2919061479c565b60405180910390f35b61021560048036036102109190810190613be1565b611100565b604051610222919061479c565b60405180910390f35b61024560048036036102409190810190613d79565b6116c4565b6040516102529190614512565b60405180910390f35b610263611700565b604051610270919061479c565b60405180910390f35b610293600480360361028e9190810190613d79565b611706565b6040516102a09190614512565b60405180910390f35b6102b1611742565b6040516102be9190614512565b60405180910390f35b6102e160048036036102dc9190810190613c46565b611768565b6040516102ee919061479c565b60405180910390f35b610311600480360361030c9190810190613cd2565b61204b565b60405161031e919061479c565b60405180910390f35b61032f6122c1565b60405161033c9190614512565b60405180910390f35b61035f600480360361035a9190810190613d79565b6122e7565b60405161037499989796959493929190614870565b60405180910390f35b61038561247f565b604051610392919061479c565b60405180910390f35b6103b560048036036103b09190810190613d79565b612485565b6040516103c79695949392919061458d565b60405180910390f35b6103ea60048036036103e59190810190613c0a565b612ca8565b6040516103f79190614618565b60405180910390f35b60036020528060005260406000206000915090508060000154908060010160009054906101000a900473ffffffffffffffffffffffffffffffffffffffff1690806005015490806006015490806007015490806008018054600181600116156101000203166002900480601f0160208091040260200160405190810160405280929190818152602001828054600181600116156101000203166002900480156104ea5780601f106104bf576101008083540402835291602001916104ea565b820191906000526020600020905b8154815290600101906020018083116104cd57829003601f168201915b505050505090806009018054600181600116156101000203166002900480601f0160208091040260200160405190810160405280929190818152602001828054600181600116156101000203166002900480156105885780601f1061055d57610100808354040283529160200191610588565b820191906000526020600020905b81548152906001019060200180831161056b57829003601f168201915b50505050509080600a01549080600b0160009054906101000a900460ff169080600b0160019054906101000a900460ff169080600c015490508b565b600080600060025484111561060e576040517f08c379a00000000000000000000000000000000000000000000000000000000081526004016106059061467c565b60405180910390fd5b610616613897565b60008086815260200190815260200160002060405180610160016040529081600182018054806020026020016040519081016040528092919081815260200182805480156106b957602002820191906000526020600020905b8160009054906101000a900473ffffffffffffffffffffffffffffffffffffffff1673ffffffffffffffffffffffffffffffffffffffff168152602001906001019080831161066f575b5050505050815260200160038201548152602001600482018054600181600116156101000203166002900480601f0160208091040260200160405190810160405280929190818152602001828054600181600116156101000203166002900480156107655780601f1061073a57610100808354040283529160200191610765565b820191906000526020600020905b81548152906001019060200180831161074857829003601f168201915b50505050508152602001600582018054600181600116156101000203166002900480601f0160208091040260200160405190810160405280929190818152602001828054600181600116156101000203166002900480156108075780601f106107dc57610100808354040283529160200191610807565b820191906000526020600020905b8154815290600101906020018083116107ea57829003601f168201915b50505050508152602001600682015481526020016007820160009054906101000a900460ff161515151581526020016008820154815260200160098201548152602001600a8201548152602001600b8201548152602001600d82018054806020026020016040519081016040528092919081815260200182805480156108e257602002820191906000526020600020905b8160009054906101000a900473ffffffffffffffffffffffffffffffffffffffff1673ffffffffffffffffffffffffffffffffffffffff1681526020019060010190808311610898575b505050505081525050905080602001518160c001518260a00151935093509350509193909250565b60025481565b60008082600c819055506001600a80905091509150915091565b6000600960009054906101000a900473ffffffffffffffffffffffffffffffffffffffff16600a60006101000a81548173ffffffffffffffffffffffffffffffffffffffff021916908373ffffffffffffffffffffffffffffffffffffffff1602179055506000600254116109d4576040517f08c379a00000000000000000000000000000000000000000000000000000000081526004016109cb906146fc565b60405180910390fd5b8560008060016002540381526020019081526020016000206006015411610a30576040517f08c379a0000000000000000000000000000000000000000000000000000000008152600401610a279061469c565b60405180910390fd5b60001515600080600160025403815260200190815260200160002060000160008473ffffffffffffffffffffffffffffffffffffffff1673ffffffffffffffffffffffffffffffffffffffff168152602001908152602001600020600b0160009054906101000a900460ff16151514610ade576040517f08c379a0000000000000000000000000000000000000000000000000000000008152600401610ad5906146bc565b60405180910390fd5b6000600a60009054906101000a900473ffffffffffffffffffffffffffffffffffffffff1673ffffffffffffffffffffffffffffffffffffffff1663556849ea846040518263ffffffff1660e01b8152600401610b3b9190614512565b60206040518083038186803b158015610b5357600080fd5b505afa158015610b67573d6000803e3d6000fd5b505050506040513d601f19601f82011682018060405250610b8b9190810190613da2565b90507f8b399b9667b9ef90d011bfddf80958d83e33edc34a1a2c4a5da812d5e2112b248382604051610bbe929190614564565b60405180910390a1600d60000154600a60009054906101000a900473ffffffffffffffffffffffffffffffffffffffff1673ffffffffffffffffffffffffffffffffffffffff1663556849ea856040518263ffffffff1660e01b8152600401610c279190614512565b60206040518083038186803b158015610c3f57600080fd5b505afa158015610c53573d6000803e3d6000fd5b505050506040513d601f19601f82011682018060405250610c779190810190613da2565b11610cb7576040517f08c379a0000000000000000000000000000000000000000000000000000000008152600401610cae9061473c565b60405180910390fd5b600d60040154851115610cff576040517f08c379a0000000000000000000000000000000000000000000000000000000008152600401610cf69061471c565b60405180910390fd5b60008060016002540381526020019081526020016000206001018390806001815401808255809150509060018203906000526020600020016000909192909190916101000a81548173ffffffffffffffffffffffffffffffffffffffff021916908373ffffffffffffffffffffffffffffffffffffffff160217905550506006600081548092919060010191905055506060610d996138f3565b604051806101c0016040528060065481526020018673ffffffffffffffffffffffffffffffffffffffff168152602001838152602001838152602001838152602001600081526020016000815260200160008152602001878152602001898152602001888152602001600115158152602001600015158152602001600160025403815250905080600080600160025403815260200190815260200160002060000160008773ffffffffffffffffffffffffffffffffffffffff1673ffffffffffffffffffffffffffffffffffffffff1681526020019081526020016000206000820151816000015560208201518160010160006101000a81548173ffffffffffffffffffffffffffffffffffffffff021916908373ffffffffffffffffffffffffffffffffffffffff1602179055506040820151816002019080519060200190610ee492919061397c565b506060820151816003019080519060200190610f0192919061397c565b506080820151816004019080519060200190610f1e92919061397c565b5060a0820151816005015560c0820151816006015560e08201518160070155610100820151816008019080519060200190610f5a929190613a06565b50610120820151816009019080519060200190610f78929190613a06565b5061014082015181600a015561016082015181600b0160006101000a81548160ff02191690831515021790555061018082015181600b0160016101000a81548160ff0219169083151502179055506101a082015181600c0155905050600080600160025403815260200190815260200160002060030160008154809291906001019190505550600a60009054906101000a900473ffffffffffffffffffffffffffffffffffffffff1673ffffffffffffffffffffffffffffffffffffffff166323b872dd86600760009054906101000a900473ffffffffffffffffffffffffffffffffffffffff16600d600001546040518463ffffffff1660e01b81526004016110849392919061452d565b602060405180830381600087803b15801561109e57600080fd5b505af11580156110b2573d6000803e3d6000fd5b505050506040513d601f19601f820116820180604052506110d69190810190613ca9565b50600080600160025403815260200190815260200160002060030154935050505095945050505050565b600061110b82612d3d565b61114a576040517f08c379a0000000000000000000000000000000000000000000000000000000008152600401611141906146dc565b60405180910390fd5b60011515600080600160025403815260200190815260200160002060070160009054906101000a900460ff161515146111b8576040517f08c379a00000000000000000000000000000000000000000000000000000000081526004016111af9061477c565b60405180910390fd5b6000806000600160025403815260200190815260200160002060070160006101000a81548160ff021916908315150217905550600080905060008090505b6000806001600254038152602001908152602001600020600101805490508110156116b25760008060006001600254038152602001908152602001600020600101828154811061124257fe5b9060005260206000200160009054906101000a900473ffffffffffffffffffffffffffffffffffffffff1690506000611692600080600160025403815260200190815260200160002060000160008473ffffffffffffffffffffffffffffffffffffffff1673ffffffffffffffffffffffffffffffffffffffff168152602001908152602001600020604051806101c0016040529081600082015481526020016001820160009054906101000a900473ffffffffffffffffffffffffffffffffffffffff1673ffffffffffffffffffffffffffffffffffffffff1673ffffffffffffffffffffffffffffffffffffffff168152602001600282018054806020026020016040519081016040528092919081815260200182805480156113bc57602002820191906000526020600020905b8160009054906101000a900473ffffffffffffffffffffffffffffffffffffffff1673ffffffffffffffffffffffffffffffffffffffff1681526020019060010190808311611372575b505050505081526020016003820180548060200260200160405190810160405280929190818152602001828054801561144a57602002820191906000526020600020905b8160009054906101000a900473ffffffffffffffffffffffffffffffffffffffff1673ffffffffffffffffffffffffffffffffffffffff1681526020019060010190808311611400575b50505050508152602001600482018054806020026020016040519081016040528092919081815260200182805480156114d857602002820191906000526020600020905b8160009054906101000a900473ffffffffffffffffffffffffffffffffffffffff1673ffffffffffffffffffffffffffffffffffffffff168152602001906001019080831161148e575b50505050508152602001600582015481526020016006820154815260200160078201548152602001600882018054600181600116156101000203166002900480601f0160208091040260200160405190810160405280929190818152602001828054600181600116156101000203166002900480156115985780601f1061156d57610100808354040283529160200191611598565b820191906000526020600020905b81548152906001019060200180831161157b57829003601f168201915b50505050508152602001600982018054600181600116156101000203166002900480601f01602080910402602001604051908101604052809291908181526020018280546001816001161561010002031660029004801561163a5780601f1061160f5761010080835404028352916020019161163a565b820191906000526020600020905b81548152906001019060200180831161161d57829003601f168201915b50505050508152602001600a8201548152602001600b820160009054906101000a900460ff16151515158152602001600b820160019054906101000a900460ff16151515158152602001600c82015481525050612d97565b905080156116a35783806001019450505b505080806001019150506111f6565b506116bb613293565b80915050919050565b600b81815481106116d157fe5b906000526020600020016000915054906101000a900473ffffffffffffffffffffffffffffffffffffffff1681565b600c5481565b6005818154811061171357fe5b906000526020600020016000915054906101000a900473ffffffffffffffffffffffffffffffffffffffff1681565b600760009054906101000a900473ffffffffffffffffffffffffffffffffffffffff1681565b6000600960009054906101000a900473ffffffffffffffffffffffffffffffffffffffff16600a60006101000a81548173ffffffffffffffffffffffffffffffffffffffff021916908373ffffffffffffffffffffffffffffffffffffffff160217905550600060025411611812576040517f08c379a0000000000000000000000000000000000000000000000000000000008152600401611809906146fc565b60405180910390fd5b826000806001600254038152602001908152602001600020600601541161186e576040517f08c379a00000000000000000000000000000000000000000000000000000000081526004016118659061469c565b60405180910390fd5b60001515600080600160025403815260200190815260200160002060000160008473ffffffffffffffffffffffffffffffffffffffff1673ffffffffffffffffffffffffffffffffffffffff168152602001908152602001600020600b0160009054906101000a900460ff1615151461191c576040517f08c379a00000000000000000000000000000000000000000000000000000000081526004016119139061465c565b60405180910390fd5b600d60010154600a60009054906101000a900473ffffffffffffffffffffffffffffffffffffffff1673ffffffffffffffffffffffffffffffffffffffff1663556849ea846040518263ffffffff1660e01b815260040161197d9190614512565b60206040518083038186803b15801561199557600080fd5b505afa1580156119a9573d6000803e3d6000fd5b505050506040513d601f19601f820116820180604052506119cd9190810190613da2565b11611a0d576040517f08c379a0000000000000000000000000000000000000000000000000000000008152600401611a049061475c565b60405180910390fd5b60008290506000806000600160025403815260200190815260200160002060000160008873ffffffffffffffffffffffffffffffffffffffff1673ffffffffffffffffffffffffffffffffffffffff1681526020019081526020016000209050600080600160025403815260200190815260200160002060000160008260010160009054906101000a900473ffffffffffffffffffffffffffffffffffffffff1673ffffffffffffffffffffffffffffffffffffffff1673ffffffffffffffffffffffffffffffffffffffff1681526020019081526020016000206004013390806001815401808255809150509060018203906000526020600020016000909192909190916101000a81548173ffffffffffffffffffffffffffffffffffffffff021916908373ffffffffffffffffffffffffffffffffffffffff160217905550508515611d38576000816002019050808390806001815401808255809150509060018203906000526020600020016000909192909190916101000a81548173ffffffffffffffffffffffffffffffffffffffff021916908373ffffffffffffffffffffffffffffffffffffffff16021790555050600080600160025403815260200190815260200160002060000160008360010160009054906101000a900473ffffffffffffffffffffffffffffffffffffffff1673ffffffffffffffffffffffffffffffffffffffff1673ffffffffffffffffffffffffffffffffffffffff1681526020019081526020016000206002018390806001815401808255809150509060018203906000526020600020016000909192909190916101000a81548173ffffffffffffffffffffffffffffffffffffffff021916908373ffffffffffffffffffffffffffffffffffffffff16021790555050600080600160025403815260200190815260200160002060000160008360010160009054906101000a900473ffffffffffffffffffffffffffffffffffffffff1673ffffffffffffffffffffffffffffffffffffffff1673ffffffffffffffffffffffffffffffffffffffff1681526020019081526020016000206006016000815480929190600101919050555050611ea9565b600080600160025403815260200190815260200160002060000160008260010160009054906101000a900473ffffffffffffffffffffffffffffffffffffffff1673ffffffffffffffffffffffffffffffffffffffff1673ffffffffffffffffffffffffffffffffffffffff1681526020019081526020016000206003018290806001815401808255809150509060018203906000526020600020016000909192909190916101000a81548173ffffffffffffffffffffffffffffffffffffffff021916908373ffffffffffffffffffffffffffffffffffffffff16021790555050600080600160025403815260200190815260200160002060000160008260010160009054906101000a900473ffffffffffffffffffffffffffffffffffffffff1673ffffffffffffffffffffffffffffffffffffffff1673ffffffffffffffffffffffffffffffffffffffff168152602001908152602001600020600701600081548092919060010191905055505b600080600160025403815260200190815260200160002060000160008260010160009054906101000a900473ffffffffffffffffffffffffffffffffffffffff1673ffffffffffffffffffffffffffffffffffffffff1673ffffffffffffffffffffffffffffffffffffffff16815260200190815260200160002060050160008154809291906001019190505550600080600160025403815260200190815260200160002060080160008154809291906001019190505550600a60009054906101000a900473ffffffffffffffffffffffffffffffffffffffff1673ffffffffffffffffffffffffffffffffffffffff166323b872dd83600760009054906101000a900473ffffffffffffffffffffffffffffffffffffffff16600d600101546040518463ffffffff1660e01b8152600401611fe79392919061452d565b602060405180830381600087803b15801561200157600080fd5b505af1158015612015573d6000803e3d6000fd5b505050506040513d601f19601f820116820180604052506120399190810190613ca9565b50806005015492505050949350505050565b600061205682612d3d565b612095576040517f08c379a000000000000000000000000000000000000000000000000000000000815260040161208c906146dc565b60405180910390fd5b6000600254111561211d5760008090505b60025481101561211b576001151560008083815260200190815260200160002060070160009054906101000a900460ff161515141561210e57600080600083815260200190815260200160002060070160006101000a81548160ff0219169083151502179055505b80806001019150506120a6565b505b6060612127613897565b60405180610160016040528083815260200160008152602001898152602001888152602001878152602001600115158152602001600081526020018681526020016002548152602001600d60040154815260200183815250905080600080600254815260200190815260200160002060008201518160010190805190602001906121b292919061397c565b506020820151816003015560408201518160040190805190602001906121d9929190613a06565b5060608201518160050190805190602001906121f6929190613a06565b506080820151816006015560a08201518160070160006101000a81548160ff02191690831515021790555060c0820151816008015560e0820151816009015561010082015181600a015561012082015181600b015561014082015181600d01908051906020019061226892919061397c565b509050507f0ebec8eaad0083414648135f63d1bda0629a930bf4321b9f920aad16a9f4be5360025460405161229d919061479c565b60405180910390a16001600254016002819055506002549250505095945050505050565b600860009054906101000a900473ffffffffffffffffffffffffffffffffffffffff1681565b600181815481106122f457fe5b90600052602060002090600e0201600091509050806003015490806004018054600181600116156101000203166002900480601f0160208091040260200160405190810160405280929190818152602001828054600181600116156101000203166002900480156123a65780601f1061237b576101008083540402835291602001916123a6565b820191906000526020600020905b81548152906001019060200180831161238957829003601f168201915b505050505090806005018054600181600116156101000203166002900480601f0160208091040260200160405190810160405280929190818152602001828054600181600116156101000203166002900480156124445780601f1061241957610100808354040283529160200191612444565b820191906000526020600020905b81548152906001019060200180831161242757829003601f168201915b5050505050908060060154908060070160009054906101000a900460ff169080600801549080600901549080600a01549080600b0154905089565b60065481565b6060806060806060806002548711156124d3576040517f08c379a00000000000000000000000000000000000000000000000000000000081526004016124ca9061467c565b60405180910390fd5b6124db613a86565b6040518060c001604052806000808b81526020019081526020016000206003015460405190808252806020026020018201604052801561252a5781602001602082028038833980820191505090505b5081526020016000808b81526020019081526020016000206003015460405190808252806020026020018201604052801561257957816020015b60608152602001906001900390816125645790505b5081526020016000808b8152602001908152602001600020600301546040519080825280602002602001820160405280156125c857816020015b60608152602001906001900390816125b35790505b5081526020016000808b8152602001908152602001600020600301546040519080825280602002602001820160405280156126125781602001602082028038833980820191505090505b5081526020016000808b81526020019081526020016000206003015460405190808252806020026020018201604052801561265c5781602001602082028038833980820191505090505b5081526020016000808b8152602001908152602001600020600301546040519080825280602002602001820160405280156126a65781602001602082028038833980820191505090505b50815250905060008090505b6000808a815260200190815260200160002060030154811015612c615760008060008b815260200190815260200160002060010182815481106126f157fe5b9060005260206000200160009054906101000a900473ffffffffffffffffffffffffffffffffffffffff1690506127266138f3565b6000808c815260200190815260200160002060000160008373ffffffffffffffffffffffffffffffffffffffff1673ffffffffffffffffffffffffffffffffffffffff168152602001908152602001600020604051806101c0016040529081600082015481526020016001820160009054906101000a900473ffffffffffffffffffffffffffffffffffffffff1673ffffffffffffffffffffffffffffffffffffffff1673ffffffffffffffffffffffffffffffffffffffff1681526020016002820180548060200260200160405190810160405280929190818152602001828054801561286957602002820191906000526020600020905b8160009054906101000a900473ffffffffffffffffffffffffffffffffffffffff1673ffffffffffffffffffffffffffffffffffffffff168152602001906001019080831161281f575b50505050508152602001600382018054806020026020016040519081016040528092919081815260200182805480156128f757602002820191906000526020600020905b8160009054906101000a900473ffffffffffffffffffffffffffffffffffffffff1673ffffffffffffffffffffffffffffffffffffffff16815260200190600101908083116128ad575b505050505081526020016004820180548060200260200160405190810160405280929190818152602001828054801561298557602002820191906000526020600020905b8160009054906101000a900473ffffffffffffffffffffffffffffffffffffffff1673ffffffffffffffffffffffffffffffffffffffff168152602001906001019080831161293b575b50505050508152602001600582015481526020016006820154815260200160078201548152602001600882018054600181600116156101000203166002900480601f016020809104026020016040519081016040528092919081815260200182805460018160011615610100020316600290048015612a455780601f10612a1a57610100808354040283529160200191612a45565b820191906000526020600020905b815481529060010190602001808311612a2857829003601f168201915b50505050508152602001600982018054600181600116156101000203166002900480601f016020809104026020016040519081016040528092919081815260200182805460018160011615610100020316600290048015612ae75780601f10612abc57610100808354040283529160200191612ae7565b820191906000526020600020905b815481529060010190602001808311612aca57829003601f168201915b50505050508152602001600a8201548152602001600b820160009054906101000a900460ff16151515158152602001600b820160019054906101000a900460ff16151515158152602001600c820154815250509050806020015184600001518481518110612b5157fe5b602002602001019073ffffffffffffffffffffffffffffffffffffffff16908173ffffffffffffffffffffffffffffffffffffffff168152505080610100015184602001518481518110612ba157fe5b602002602001018190525080610120015184604001518481518110612bc257fe5b602002602001018190525080610100015184602001518481518110612be357fe5b602002602001018190525080610140015184606001518481518110612c0457fe5b6020026020010181815250508060c0015184608001518481518110612c2557fe5b6020026020010181815250508060e001518460a001518481518110612c4657fe5b602002602001018181525050505080806001019150506126b2565b50806000015181602001518260400151836060015184608001518560a001518595508494508393508292508191508090509650965096509650965096505091939550919395565b6000612cb382612d3d565b612cf2576040517f08c379a0000000000000000000000000000000000000000000000000000000008152600401612ce9906146dc565b60405180910390fd5b82600760006101000a81548173ffffffffffffffffffffffffffffffffffffffff021916908373ffffffffffffffffffffffffffffffffffffffff1602179055506001905092915050565b6000600860009054906101000a900473ffffffffffffffffffffffffffffffffffffffff1673ffffffffffffffffffffffffffffffffffffffff168273ffffffffffffffffffffffffffffffffffffffff16149050919050565b6000600960009054906101000a900473ffffffffffffffffffffffffffffffffffffffff16600a60006101000a81548173ffffffffffffffffffffffffffffffffffffffff021916908373ffffffffffffffffffffffffffffffffffffffff1602179055506000600d600201548360a0015160648560c001510281612e1857fe5b04101590506001151581151514156131d0578261014001516000806001600254038152602001908152602001600020600b015411156131cb577ffc5713ef03b84974927969d8f96cc72925ea17d21ce5c9f2fb87b0d9640b307b836101400151600d60000154600d6000015486610140015101604051612e9a93929190614942565b60405180910390a1600a60009054906101000a900473ffffffffffffffffffffffffffffffffffffffff1673ffffffffffffffffffffffffffffffffffffffff1663a9059cbb8460200151600d60000154866101400151016040518363ffffffff1660e01b8152600401612f0f929190614564565b602060405180830381600087803b158015612f2957600080fd5b505af1158015612f3d573d6000803e3d6000fd5b505050506040513d601f19601f82011682018060405250612f619190810190613ca9565b508261014001516000806001600254038152602001908152602001600020600b01600082825403925050819055506000806001600254038152602001908152602001600020600d01836020015190806001815401808255809150509060018203906000526020600020016000909192909190916101000a81548173ffffffffffffffffffffffffffffffffffffffff021916908373ffffffffffffffffffffffffffffffffffffffff16021790555050826000806001600254038152602001908152602001600020600c016000856020015173ffffffffffffffffffffffffffffffffffffffff1673ffffffffffffffffffffffffffffffffffffffff1681526020019081526020016000206000820151816000015560208201518160010160006101000a81548173ffffffffffffffffffffffffffffffffffffffff021916908373ffffffffffffffffffffffffffffffffffffffff16021790555060408201518160020190805190602001906130da92919061397c565b5060608201518160030190805190602001906130f792919061397c565b50608082015181600401908051906020019061311492919061397c565b5060a0820151816005015560c0820151816006015560e08201518160070155610100820151816008019080519060200190613150929190613a06565b5061012082015181600901908051906020019061316e929190613a06565b5061014082015181600a015561016082015181600b0160006101000a81548160ff02191690831515021790555061018082015181600b0160016101000a81548160ff0219169083151502179055506101a082015181600c01559050505b61328a565b600a60009054906101000a900473ffffffffffffffffffffffffffffffffffffffff1673ffffffffffffffffffffffffffffffffffffffff1663a9059cbb8460200151600d600001546040518363ffffffff1660e01b8152600401613236929190614564565b602060405180830381600087803b15801561325057600080fd5b505af1158015613264573d6000803e3d6000fd5b505050506040513d601f19601f820116820180604052506132889190810190613ca9565b505b80915050919050565b600960009054906101000a900473ffffffffffffffffffffffffffffffffffffffff16600a60006101000a81548173ffffffffffffffffffffffffffffffffffffffff021916908373ffffffffffffffffffffffffffffffffffffffff16021790555060008090505b6000806001600254038152602001908152602001600020600101805490508110156138945760008060006001600254038152602001908152602001600020600101828154811061334857fe5b9060005260206000200160009054906101000a900473ffffffffffffffffffffffffffffffffffffffff16905061337d6138f3565b600080600160025403815260200190815260200160002060000160008373ffffffffffffffffffffffffffffffffffffffff1673ffffffffffffffffffffffffffffffffffffffff168152602001908152602001600020604051806101c0016040529081600082015481526020016001820160009054906101000a900473ffffffffffffffffffffffffffffffffffffffff1673ffffffffffffffffffffffffffffffffffffffff1673ffffffffffffffffffffffffffffffffffffffff168152602001600282018054806020026020016040519081016040528092919081815260200182805480156134c557602002820191906000526020600020905b8160009054906101000a900473ffffffffffffffffffffffffffffffffffffffff1673ffffffffffffffffffffffffffffffffffffffff168152602001906001019080831161347b575b505050505081526020016003820180548060200260200160405190810160405280929190818152602001828054801561355357602002820191906000526020600020905b8160009054906101000a900473ffffffffffffffffffffffffffffffffffffffff1673ffffffffffffffffffffffffffffffffffffffff1681526020019060010190808311613509575b50505050508152602001600482018054806020026020016040519081016040528092919081815260200182805480156135e157602002820191906000526020600020905b8160009054906101000a900473ffffffffffffffffffffffffffffffffffffffff1673ffffffffffffffffffffffffffffffffffffffff1681526020019060010190808311613597575b50505050508152602001600582015481526020016006820154815260200160078201548152602001600882018054600181600116156101000203166002900480601f0160208091040260200160405190810160405280929190818152602001828054600181600116156101000203166002900480156136a15780601f10613676576101008083540402835291602001916136a1565b820191906000526020600020905b81548152906001019060200180831161368457829003601f168201915b50505050508152602001600982018054600181600116156101000203166002900480601f0160208091040260200160405190810160405280929190818152602001828054600181600116156101000203166002900480156137435780601f1061371857610100808354040283529160200191613743565b820191906000526020600020905b81548152906001019060200180831161372657829003601f168201915b50505050508152602001600a8201548152602001600b820160009054906101000a900460ff16151515158152602001600b820160019054906101000a900460ff16151515158152602001600c82015481525050905060008090505b81608001515181101561388457600a60009054906101000a900473ffffffffffffffffffffffffffffffffffffffff1673ffffffffffffffffffffffffffffffffffffffff1663a9059cbb836080015183815181106137f957fe5b6020026020010151600d600101546040518363ffffffff1660e01b8152600401613824929190614564565b602060405180830381600087803b15801561383e57600080fd5b505af1158015613852573d6000803e3d6000fd5b505050506040513d601f19601f820116820180604052506138769190810190613ca9565b50808060010191505061379e565b50505080806001019150506132fc565b50565b604051806101600160405280606081526020016000815260200160608152602001606081526020016000815260200160001515815260200160008152602001600081526020016000815260200160008152602001606081525090565b604051806101c0016040528060008152602001600073ffffffffffffffffffffffffffffffffffffffff168152602001606081526020016060815260200160608152602001600081526020016000815260200160008152602001606081526020016060815260200160008152602001600015158152602001600015158152602001600081525090565b8280548282559060005260206000209081019282156139f5579160200282015b828111156139f45782518260006101000a81548173ffffffffffffffffffffffffffffffffffffffff021916908373ffffffffffffffffffffffffffffffffffffffff1602179055509160200191906001019061399c565b5b509050613a029190613abc565b5090565b828054600181600116156101000203166002900490600052602060002090601f016020900481019282601f10613a4757805160ff1916838001178555613a75565b82800160010185558215613a75579182015b82811115613a74578251825591602001919060010190613a59565b5b509050613a829190613aff565b5090565b6040518060c001604052806060815260200160608152602001606081526020016060815260200160608152602001606081525090565b613afc91905b80821115613af857600081816101000a81549073ffffffffffffffffffffffffffffffffffffffff021916905550600101613ac2565b5090565b90565b613b2191905b80821115613b1d576000816000905550600101613b05565b5090565b90565b600081359050613b3381614b45565b92915050565b600081359050613b4881614b5c565b92915050565b600081519050613b5d81614b5c565b92915050565b600082601f830112613b7457600080fd5b8135613b87613b82826149a6565b614979565b91508082526020830160208301858383011115613ba357600080fd5b613bae838284614af2565b50505092915050565b600081359050613bc681614b73565b92915050565b600081519050613bdb81614b73565b92915050565b600060208284031215613bf357600080fd5b6000613c0184828501613b24565b91505092915050565b60008060408385031215613c1d57600080fd5b6000613c2b85828601613b24565b9250506020613c3c85828601613b24565b9150509250929050565b60008060008060808587031215613c5c57600080fd5b6000613c6a87828801613b24565b9450506020613c7b87828801613b39565b9350506040613c8c87828801613bb7565b9250506060613c9d87828801613b24565b91505092959194509250565b600060208284031215613cbb57600080fd5b6000613cc984828501613b4e565b91505092915050565b600080600080600060a08688031215613cea57600080fd5b600086013567ffffffffffffffff811115613d0457600080fd5b613d1088828901613b63565b955050602086013567ffffffffffffffff811115613d2d57600080fd5b613d3988828901613b63565b9450506040613d4a88828901613bb7565b9350506060613d5b88828901613bb7565b9250506080613d6c88828901613b24565b9150509295509295909350565b600060208284031215613d8b57600080fd5b6000613d9984828501613bb7565b91505092915050565b600060208284031215613db457600080fd5b6000613dc284828501613bcc565b91505092915050565b600080600080600060a08688031215613de357600080fd5b6000613df188828901613bb7565b955050602086013567ffffffffffffffff811115613e0e57600080fd5b613e1a88828901613b63565b9450506040613e2b88828901613bb7565b935050606086013567ffffffffffffffff811115613e4857600080fd5b613e5488828901613b63565b9250506080613e6588828901613b24565b9150509295509295909350565b6000613e7e8383613eb6565b60208301905092915050565b6000613e968383614014565b905092915050565b6000613eaa83836144f4565b60208301905092915050565b613ebf81614aaa565b82525050565b613ece81614aaa565b82525050565b6000613edf82614a02565b613ee98185614a55565b9350613ef4836149d2565b8060005b83811015613f25578151613f0c8882613e72565b9750613f1783614a2e565b925050600181019050613ef8565b5085935050505092915050565b6000613f3d82614a0d565b613f478185614a66565b935083602082028501613f59856149e2565b8060005b85811015613f955784840389528151613f768582613e8a565b9450613f8183614a3b565b925060208a01995050600181019050613f5d565b50829750879550505050505092915050565b6000613fb282614a18565b613fbc8185614a77565b9350613fc7836149f2565b8060005b83811015613ff8578151613fdf8882613e9e565b9750613fea83614a48565b925050600181019050613fcb565b5085935050505092915050565b61400e81614abc565b82525050565b600061401f82614a23565b6140298185614a88565b9350614039818560208601614b01565b61404281614b34565b840191505092915050565b600061405882614a23565b6140628185614a99565b9350614072818560208601614b01565b61407b81614b34565b840191505092915050565b6000614093602283614a99565b91507f50726f706f73616c206f776e6572732063616e6e6f74206361737420766f746560008301527f732e0000000000000000000000000000000000000000000000000000000000006020830152604082019050919050565b60006140f9604883614a99565b91507f564f54494e4720434f4e54524143543a2067657450726f706f73616c4279537460008301527f61636b2c20546865726520697320616e7920737461636b20776974682074686960208301527f73206e756d6265720000000000000000000000000000000000000000000000006040830152606082019050919050565b6000614185605c83614a99565b91507f4163746976652070726f706f73616c20737461636b2065787069726174696f6e60008301527f206461746520697320726561636865642c20776169742074696c6c207765207260208301527f656769737465722061206e65772070726f706f73616c20737461636b000000006040830152606082019050919050565b6000614211602883614a99565b91507f596f7520616c72656164792068617665206f6e6520726567697374657265642060008301527f70726f706f73616c0000000000000000000000000000000000000000000000006020830152604082019050919050565b6000614277602e83614a99565b91507f596f75206e65656420746f20626520612064656c656761746520746f2075736560008301527f20746869732066756e6374696f6e0000000000000000000000000000000000006020830152604082019050919050565b60006142dd604f83614a99565b91507f546865726520617265206e6f20737461636b7320617661696c626c652c20776160008301527f69742074696c6c206d616e61676572207468726f77732061206e65772053746160208301527f636b206f662070726f706f73616c7300000000000000000000000000000000006040830152606082019050919050565b6000614369603e83614a99565b91507f596f757220726571756972656d656e74206973206f766572207468652064656660008301527f61756c74206c696d697420283130303020697320746865206c696d69742900006020830152604082019050919050565b60006143cf603683614a99565b91507f596f7520646f6e2774206861766520656e6f7567682065566f74696e67546f6b60008301527f656e7320746f206d616b6520612070726f706f73616c000000000000000000006020830152604082019050919050565b6000614435603283614a99565b91507f596f7520646f6e2774206861766520656e6f7567682065566f74696e67546f6b60008301527f656e7320746f2063617374206120766f746500000000000000000000000000006020830152604082019050919050565b600061449b603583614a99565b91507f5468657265206973206e6f742061637469766520737461636b20746f2072657660008301527f6965772077696e6e696e672070726f706f73616c7300000000000000000000006020830152604082019050919050565b6144fd81614ae8565b82525050565b61450c81614ae8565b82525050565b60006020820190506145276000830184613ec5565b92915050565b60006060820190506145426000830186613ec5565b61454f6020830185613ec5565b61455c6040830184614503565b949350505050565b60006040820190506145796000830185613ec5565b6145866020830184614503565b9392505050565b600060c08201905081810360008301526145a78189613ed4565b905081810360208301526145bb8188613f32565b905081810360408301526145cf8187613f32565b905081810360608301526145e38186613fa7565b905081810360808301526145f78185613fa7565b905081810360a083015261460b8184613fa7565b9050979650505050505050565b600060208201905061462d6000830184614005565b92915050565b60006040820190506146486000830185614005565b6146556020830184614503565b9392505050565b6000602082019050818103600083015261467581614086565b9050919050565b60006020820190508181036000830152614695816140ec565b9050919050565b600060208201905081810360008301526146b581614178565b9050919050565b600060208201905081810360008301526146d581614204565b9050919050565b600060208201905081810360008301526146f58161426a565b9050919050565b60006020820190508181036000830152614715816142d0565b9050919050565b600060208201905081810360008301526147358161435c565b9050919050565b60006020820190508181036000830152614755816143c2565b9050919050565b6000602082019050818103600083015261477581614428565b9050919050565b600060208201905081810360008301526147958161448e565b9050919050565b60006020820190506147b16000830184614503565b92915050565b6000610160820190506147cd600083018e614503565b6147da602083018d613ec5565b6147e7604083018c614503565b6147f4606083018b614503565b614801608083018a614503565b81810360a0830152614813818961404d565b905081810360c0830152614827818861404d565b905061483660e0830187614503565b614844610100830186614005565b614852610120830185614005565b614860610140830184614503565b9c9b505050505050505050505050565b600061012082019050614886600083018c614503565b8181036020830152614898818b61404d565b905081810360408301526148ac818a61404d565b90506148bb6060830189614503565b6148c86080830188614005565b6148d560a0830187614503565b6148e260c0830186614503565b6148ef60e0830185614503565b6148fd610100830184614503565b9a9950505050505050505050565b60006060820190506149206000830186614503565b61492d6020830185614503565b61493a6040830184614005565b949350505050565b60006060820190506149576000830186614503565b6149646020830185614503565b6149716040830184614503565b949350505050565b6000604051905081810181811067ffffffffffffffff8211171561499c57600080fd5b8060405250919050565b600067ffffffffffffffff8211156149bd57600080fd5b601f19601f8301169050602081019050919050565b6000819050602082019050919050565b6000819050602082019050919050565b6000819050602082019050919050565b600081519050919050565b600081519050919050565b600081519050919050565b600081519050919050565b6000602082019050919050565b6000602082019050919050565b6000602082019050919050565b600082825260208201905092915050565b600082825260208201905092915050565b600082825260208201905092915050565b600082825260208201905092915050565b600082825260208201905092915050565b6000614ab582614ac8565b9050919050565b60008115159050919050565b600073ffffffffffffffffffffffffffffffffffffffff82169050919050565b6000819050919050565b82818337600083830152505050565b60005b83811015614b1f578082015181840152602081019050614b04565b83811115614b2e576000848401525b50505050565b6000601f19601f8301169050919050565b614b4e81614aaa565b8114614b5957600080fd5b50565b614b6581614abc565b8114614b7057600080fd5b50565b614b7c81614ae8565b8114614b8757600080fd5b5056fea365627a7a7231582058639bdf9bfdefc2e975c85358e6314b933f9b1ec966c7ec55a761d86ac2fd046c6578706572696d656e74616cf564736f6c63430005100040",
  "source": "// SPDX-License-Identifier: MIT\npragma solidity >=0.4.0 <0.7.0;\npragma experimental ABIEncoderV2;\nimport \"./eVotingToken.sol\";\n\ncontract NewVotingContract {\n    struct Voter {\n        address accountAddress;\n        bool voterRegistered;\n        uint numOfVotes;\n    }\n\n    struct Proposal {\n        uint id;\n        address proposalOwner;\n        address[] votersInFavour;\n        address[] votersInRejection;\n        address[] voters;\n        uint voteCount;\n        uint countYes;\n        uint countNo;\n        string proposalName;\n        string proposalDesc;\n        uint proposalRequirement;\n        bool proposalRegistered;\n        bool accepted;\n        uint stack;\n    }\n\n    struct ProposalStack {\n        mapping(address => Proposal) proposalsMap;\n        address[] proposals;\n        mapping(address => Voter) votersMap;\n        uint proposalCount;\n        string openDate;\n        string expirationDate;\n        uint expiration;\n        bool isActive;\n        uint voteCounter;\n        uint stackReward;\n        uint number;\n        uint winningStakeAvailable;\n        mapping(address => Proposal) winningProposalsMap;\n        address[] winningProposals;\n    }\n\n    struct Defaults {\n        uint defaultProposalStake;\n        uint defaultVoteStake;\n        uint defaultAcceptanceRate;\n        uint defaultWinningStake;\n        uint defaultRequirementLimit;\n    }\n\n    mapping(uint => ProposalStack) proposalStackMapping;\n    ProposalStack[] public proposalStackArray;\n    uint public activeStack;\n    mapping(address => Proposal) public proposals;\n    mapping (address => uint96) internal balances;\n    address[] public proposalAddress;\n    uint public proposalCount = 0;\n    address public owner;\n    address public delegate;\n    address private tokenAddress;\n    eVotingToken token;\n    address[] public acceptedProposal;\n   \n    uint public number = 0;\n    \n    Defaults def;\n    event tokensDeposited (\n        address depositer,\n        uint tokenAmount\n    );        \n\n    event NewStack(uint activeStack);\n    event CheckTokenBalance(address account, uint balance);\n    event WinningStake(uint requirement, uint defaultR, uint total);\n   \n   \n    constructor(address _tokenAddress) public {\n        owner = msg.sender;\n        delegate = msg.sender;\n        tokenAddress = _tokenAddress;\n        activeStack = 0;\n        number = 10;\n        def = Defaults({\n            defaultProposalStake: 1000,\n            defaultVoteStake: 500,\n            defaultAcceptanceRate: 51,\n            defaultWinningStake: 10000,\n            defaultRequirementLimit: 1000\n        });\n    }\n\n    function onlyDelegate (address _account) internal returns (bool) {\n        return _account == delegate;\n    }\n\n    function setOwnerDelegate(address newOwner, address _account) public returns(bool) {\n        require (onlyDelegate(_account), \"You need to be a delegate to use this function\");\n        owner = newOwner;\n        return true;\n    }\n\n    function setNumber(uint newNumber) public returns (bool, uint) {\n        number = newNumber;\n        return (true, 10);\n    }\n    // TODO: set variables values to requirementLimit, def.defaultVoteStake, defaultProposalStake while creating a new proposal stack and at winning proposals reward properly!\n    function newProposalStack(\n        string memory _openDate,\n        string memory _expirationDate,\n        uint _expiration,\n        uint _stackReward,\n        address _account\n    ) public returns (uint) {\n        require (onlyDelegate(_account), \"You need to be a delegate to use this function\");\n        // Before create one ProposalStack we are closing each \"active\" stack.\n        if (activeStack > 0) {\n            for (uint i = 0; i < activeStack; i++) {\n                if (proposalStackMapping[i].isActive == true) {\n                    proposalStackMapping[i].isActive = false;\n                }\n            }\n        }\n        // Create instance of ProposalStack\n        address [] memory emptyArray;\n        ProposalStack memory ps = ProposalStack({\n            isActive: true,\n            openDate: _openDate,\n            expirationDate: _expirationDate,\n            expiration: _expiration,\n            stackReward: _stackReward,\n            voteCounter: 0,\n            proposalCount: 0,\n            winningStakeAvailable:  def.defaultRequirementLimit,\n            number: activeStack,\n            winningProposals: emptyArray,\n            proposals: emptyArray\n        });\n        \n        // Asign stack at the array\n        proposalStackMapping[activeStack] = ps;\n        emit NewStack(activeStack);\n        // Set activeStack\n       \n        activeStack = activeStack + 1;\n        return activeStack;\n    }\n\n    function getProposalsByStack (uint stackNumber) public returns(uint, uint, bool) {\n        require(stackNumber <= activeStack, 'VOTING CONTRACT: getProposalByStack, There is any stack with this number');\n        ProposalStack memory ps = proposalStackMapping[stackNumber];\n        return (ps.proposalCount, ps.voteCounter, ps.isActive);\n    }\n   \n\n    function senderHasVoted (address sender) internal view returns (bool) {\n        bool voted = false;\n        for(uint i = 0; i < proposalStackMapping[activeStack - 1].proposals.length; i++) {\n            address currentProposalAddress = proposalStackMapping[activeStack - 1].proposals[i];\n            Proposal memory currentProposal = proposalStackMapping[activeStack - 1].proposalsMap[currentProposalAddress];\n            for (uint x = 0; x < currentProposal.voters.length; x++) {\n                if (currentProposal.voters[x] == sender) {\n                    voted = true;\n                    // break voters for\n                    x = currentProposal.voters.length;\n                    //break proposals for\n                    i = proposalStackMapping[activeStack - 1].proposals.length;\n                }\n            }\n        }\n        return voted;\n    }\n\n    struct ProposalsResultObject {\n        address[] addresses;\n        string[] names;\n        string[] descriptions;\n        uint[] requirements;\n        uint[] favour;\n        uint[] against;\n    }\n\n    function getProposalListByStack (uint _stackNumber) public returns (address[] memory, string[] memory, string[] memory, uint [] memory, uint [] memory, uint [] memory) {\n        require(_stackNumber <= activeStack, 'VOTING CONTRACT: getProposalByStack, There is any stack with this number');\n\n        ProposalsResultObject memory pro = ProposalsResultObject({\n            addresses: new address[](proposalStackMapping[_stackNumber].proposalCount),\n            names: new string[](proposalStackMapping[_stackNumber].proposalCount),\n            descriptions: new string[](proposalStackMapping[_stackNumber].proposalCount),\n            requirements: new uint[](proposalStackMapping[_stackNumber].proposalCount),\n            favour: new uint[](proposalStackMapping[_stackNumber].proposalCount),\n            against: new uint[](proposalStackMapping[_stackNumber].proposalCount)\n        });\n\n       /* address[] memory proposalsResult = new address[](proposalStackMapping[_stackNumber].proposalCount);\n        string[] memory names = new string[](proposalStackMapping[_stackNumber].proposalCount);\n        string[] memory descriptions = new string[](proposalStackMapping[_stackNumber].proposalCount);\n        uint [] memory requirements = new uint[](proposalStackMapping[_stackNumber].proposalCount);\n        uint [] memory favour = new uint[](proposalStackMapping[_stackNumber].proposalCount);\n        uint [] memory against = new uint[](proposalStackMapping[_stackNumber].proposalCount);\n*/\n        for(uint i = 0; i < proposalStackMapping[_stackNumber].proposalCount; i++) {\n            address currentAddress = proposalStackMapping[_stackNumber].proposals[i];\n            Proposal memory current = proposalStackMapping[_stackNumber].proposalsMap[currentAddress];\n            pro.addresses[i] = current.proposalOwner;\n            //proposalsResult[i] = current.proposalOwner;\n            pro.names[i] = current.proposalName;\n            \n            //names[i] = current.proposalName;\n            \n            pro.descriptions[i] = current.proposalDesc;\n            //descriptions[i] = current.proposalDesc;\n            pro.names[i] = current.proposalName;\n            //requirements[i] = current.proposalRequirement;\n            pro.requirements[i] = current.proposalRequirement;\n\n            //favour[i] = current.countYes;\n            pro.favour[i] = current.countYes;\n\n            //against[i] = current.countNo;\n            pro.against[i] = current.countNo;\n\n        }\n        //return (proposalsResult, names, descriptions, requirements, favour, against);\n        return (pro.addresses, pro.names, pro.descriptions, pro.requirements, pro.favour, pro.against);\n\n    }\n\n    function registerProposal (\n        uint _currentDate,\n        string memory _description,\n        uint _proposalRequirement,\n        string memory _name,\n        address _account\n    ) public returns (uint) {\n        token = eVotingToken(tokenAddress);\n        //Check if there are proposalStacks\n        require(activeStack > 0, \"There are no stacks availble, wait till manager throws a new Stack of proposals\");\n        // Check availability of current activeStack\n        require (proposalStackMapping[activeStack - 1].expiration > _currentDate, \"Active proposal stack expiration date is reached, wait till we register a new proposal stack\");\n       \n       // Check if sender has a proposal already sended to current activeStack.\n        require (proposalStackMapping[activeStack - 1].proposalsMap[_account].proposalRegistered == false, \"You already have one registered proposal\");\n       \n        //Check if sender has available tokens\n        uint balance = token.balanceFor(_account);\n        emit CheckTokenBalance(_account, balance);\n        require (token.balanceFor(_account) > def.defaultProposalStake, \"You don't have enough eVotingTokens to make a proposal\");\n       \n        //Check if _account has a vote (proposalOwners can't send proposals)\n        // require(!senderHasVoted(_account), \"Voters cannot send a proposal, wait till the next proposal stack\");\n       \n        // Check proposalRequirement\n        require(_proposalRequirement <=  def.defaultRequirementLimit, \"Your requirement is over the default limit (1000 is the limit)\");\n       \n        // Add sender address to  proposals\n        proposalStackMapping[activeStack - 1].proposals.push(_account);\n       \n        //\n        proposalCount++;\n        // Create proposal\n        address [] memory emptyArray;\n        Proposal memory newProposal = Proposal({\n            id: proposalCount,\n            proposalName: _name,\n            proposalOwner: _account,\n            proposalDesc: _description,\n            countNo: 0,\n            countYes: 0,\n            voteCount: 0,\n            votersInFavour: emptyArray,\n            votersInRejection: emptyArray,\n            voters: emptyArray,\n            proposalRequirement: _proposalRequirement,\n            proposalRegistered: true,\n            accepted: false,\n            stack: activeStack - 1\n        });\n\n        // Add proposal into proposals at stack\n        proposalStackMapping[activeStack - 1].proposalsMap[_account] = newProposal;\n       \n        // Set new value of proposalCount adding 1\n        proposalStackMapping[activeStack - 1].proposalCount ++;\n       \n        // Stake token to the owner of smart contract\n        token.transferFrom(_account, owner, def.defaultProposalStake);\n       \n        return proposalStackMapping[activeStack - 1].proposalCount;\n    }\n   \n    function castVote(\n        address proposalAddressToVote,\n        bool support,\n        uint _currentDate,\n        address _account\n    ) public returns (uint) {\n        token = eVotingToken(tokenAddress);\n        //Check if there are proposalStacks\n        require(activeStack > 0, \"There are no stacks availble, wait till manager throws a new Stack of proposals\");\n        // Check availability of current activeStack\n        require (proposalStackMapping[activeStack - 1].expiration > _currentDate, \"Active proposal stack expiration date is reached, wait till we register a new proposal stack\");\n        // Check if sender has a proposal (Proposal owners canot vote).\n        require (proposalStackMapping[activeStack - 1].proposalsMap[_account].proposalRegistered == false, \"Proposal owners cannot cast votes.\");\n         //Check if sender has available tokens to vote\n        require (token.balanceFor(_account) > def.defaultVoteStake, \"You don't have enough eVotingTokens to cast a vote\");\n        // Check if there is a proposal for the address user selected.\n        //require(proposalStackMapping[activeStack - 1].proposalsMap[proposalAddressToVote].stack < activeStack - 1, \"There is any proposal to the address yo want to cast your vote\");\n       \n        // TODO: Check if voter has made a vote supporting this proposal. Don't know if a voter can cast multiple votes.\n        address voter = _account;\n        Proposal storage proposalSelected = proposalStackMapping[activeStack - 1].proposalsMap[proposalAddressToVote];\n        proposalStackMapping[activeStack - 1].proposalsMap[proposalSelected.proposalOwner].voters.push(msg.sender);\n        if (support) {\n            address [] storage votersInFavourCopy = proposalSelected.votersInFavour;\n            votersInFavourCopy.push(voter);\n            proposalStackMapping[activeStack - 1].proposalsMap[proposalSelected.proposalOwner].votersInFavour.push(voter);\n            proposalStackMapping[activeStack - 1].proposalsMap[proposalSelected.proposalOwner].countYes++;\n        } else {\n            proposalStackMapping[activeStack - 1].proposalsMap[proposalSelected.proposalOwner].votersInRejection.push(voter);\n            proposalStackMapping[activeStack - 1].proposalsMap[proposalSelected.proposalOwner].countNo++;\n        }\n       \n        proposalStackMapping[activeStack - 1].proposalsMap[proposalSelected.proposalOwner].voteCount++;\n        proposalStackMapping[activeStack - 1].voteCounter++;\n       \n        token.transferFrom(voter, owner, def.defaultVoteStake);\n        return proposalSelected.voteCount;\n    }\n   \n    function reviewWinningProposals (address _account) public returns (uint){\n        // Check if activeStack is not 0\n        // require (activeStack == 0, \"There is not active stack, create one before review winning proposals\");\n        require (onlyDelegate(_account), \"You need to be a delegate to use this function\");\n        // Check if there is activeStack\n        require (proposalStackMapping[activeStack - 1].isActive == true, \"There is not active stack to review winning proposals\");\n\n        // Inactive current proposalStack\n        proposalStackMapping[activeStack - 1].isActive = false;\n        //\n        // TODO: sort winning proposals (better if they have more yesVotes).\n        uint winningCounter = 0;\n        for (uint i = 0; i < proposalStackMapping[activeStack - 1].proposals.length; i++) {\n            address currentProposalAddress = proposalStackMapping[activeStack - 1].proposals[i];\n            bool winning = reviewWinningProposal(proposalStackMapping[activeStack - 1].proposalsMap[currentProposalAddress]);\n            if (winning) {\n                winningCounter++;\n            }\n        }\n\n        returnStakeToVoters();\n       \n        return winningCounter;\n    }\n   \n    function reviewWinningProposal (Proposal memory p) internal returns (bool) {\n        token = eVotingToken(tokenAddress);\n        bool isWinning = ((p.countYes * 100) / p.voteCount ) >= def.defaultAcceptanceRate;\n        // return proposal Stake (winner or not)\n       \n        // give proposalRequirement\n        if (isWinning == true) {\n            if (proposalStackMapping[activeStack - 1].winningStakeAvailable > p.proposalRequirement) {\n                emit WinningStake(p.proposalRequirement, def.defaultProposalStake, p.proposalRequirement + def.defaultProposalStake);\n                token.transfer(p.proposalOwner, p.proposalRequirement + def.defaultProposalStake);\n                proposalStackMapping[activeStack - 1].winningStakeAvailable -= p.proposalRequirement;\n                proposalStackMapping[activeStack - 1].winningProposals.push(p.proposalOwner);\n                proposalStackMapping[activeStack - 1].winningProposalsMap[p.proposalOwner] = p;\n            }\n        } else {\n            token.transfer(p.proposalOwner, def.defaultProposalStake);\n        }\n       \n\n        return isWinning;\n    }\n   \n    function returnStakeToVoters () internal {\n        token = eVotingToken(tokenAddress);\n        for(uint i = 0; i < proposalStackMapping[activeStack - 1].proposals.length; i++) {\n            address currentProposalAddress = proposalStackMapping[activeStack - 1].proposals[i];\n            Proposal memory currentProposal = proposalStackMapping[activeStack - 1].proposalsMap[currentProposalAddress];\n            for (uint x = 0; x < currentProposal.voters.length; x++) {\n                token.transfer(currentProposal.voters[x], def.defaultVoteStake);\n            }\n        }\n    }\n   \n    function returnStakeToProposalOwners () internal {\n        token = eVotingToken(tokenAddress);\n        for(uint i = 0; i < proposalStackMapping[activeStack - 1].proposals.length; i++) {\n            address currentProposalAddress = proposalStackMapping[activeStack - 1].proposals[i];\n            Proposal memory currentProposal = proposalStackMapping[activeStack - 1].proposalsMap[currentProposalAddress];\n            token.transfer(currentProposal.proposalOwner, def.defaultProposalStake);\n        }\n    }\n} \n",
  "sourcePath": "/Users/rafaelzavala/Desktop/Desktop/proyectos/Alexis/hydra-governance/voting-smartcontract/src/contracts/NewVotingContract.sol",
  "compiler": {
    "name": "solc",
    "version": "0.5.16+commit.9c3226ce.Emscripten.clang"
  },
  "schemaVersion": "3.4.3",
  "updatedAt": "2021-10-11T15:06:03.036Z",
  "networkType": "ethereum",
  "devdoc": {
    "methods": {}
  },
  "userdoc": {
    "methods": {}
  }
}